{
  "contractName": "DappToken",
  "abi": [
    {
      "constant": true,
      "inputs": [],
      "name": "totalSupply",
      "outputs": [
        {
          "name": "",
          "type": "uint256"
        }
      ],
      "payable": false,
      "stateMutability": "view",
      "type": "function"
    },
    {
      "inputs": [],
      "payable": false,
      "stateMutability": "nonpayable",
      "type": "constructor"
    }
  ],
  "bytecode": "0x608060405234801561001057600080fd5b50620f4240600081905550609e806100296000396000f300608060405260043610603f576000357c0100000000000000000000000000000000000000000000000000000000900463ffffffff16806318160ddd146044575b600080fd5b348015604f57600080fd5b506056606c565b6040518082815260200191505060405180910390f35b600054815600a165627a7a72305820d03f91d8ede8df60a5873df817ed002436f62dabd0540f4239832c9f74c0fd4c0029",
  "source": "pragma solidity ^0.4.17;\n\ncontract DappToken {\n\n    // Constructor\n    // Set the total no of tokens\n    // Read the total no of tokens\n\n    uint256 public totalSupply;\n\n    function DappToken() public {\n        totalSupply = 1000000;\n    }\n\n\n}",
  "sourcePath": "/home/arindamm/Arindam/BlockChain/token_sale/contracts/DappToken.sol",
  "compiler": {
    "name": "solc",
    "version": "0.4.23+commit.124ca40d.Emscripten.clang"
  },
  "schemaVersion": "2.0.0",
  "updatedAt": "2018-06-09T05:23:58.889Z"
}