{
  "contractName": "DappToken",
  "abi": [
    {
      "constant": true,
      "inputs": [],
      "name": "totalSupply",
      "outputs": [
        {
          "name": "",
          "type": "uint256"
        }
      ],
      "payable": false,
      "stateMutability": "view",
      "type": "function"
    },
    {
      "inputs": [
        {
          "name": "_initialSupply",
          "type": "uint256"
        }
      ],
      "payable": false,
      "stateMutability": "nonpayable",
      "type": "constructor"
    }
  ],
  "bytecode": "0x608060405234801561001057600080fd5b506040516020806100e7833981018060405281019080805190602001909291905050508060008190555050609e806100496000396000f300608060405260043610603f576000357c0100000000000000000000000000000000000000000000000000000000900463ffffffff16806318160ddd146044575b600080fd5b348015604f57600080fd5b506056606c565b6040518082815260200191505060405180910390f35b600054815600a165627a7a72305820e9d93c766d8b471ca9b928508a6beff281b5b508a754d5f29c01148d2abba99d0029",
  "source": "pragma solidity ^0.4.17;\n\ncontract DappToken {\n\n    // Constructor\n    // Set the total no of tokens\n    // Read the total no of tokens\n\n    uint256 public totalSupply;\n\n    function DappToken(uint256 _initialSupply) public {\n        totalSupply = _initialSupply;\n    }\n\n\n}",
  "sourcePath": "/home/arindamm/Arindam/BlockChain/token_sale/contracts/DappToken.sol",
  "compiler": {
    "name": "solc",
    "version": "0.4.23+commit.124ca40d.Emscripten.clang"
  },
  "schemaVersion": "2.0.0",
  "updatedAt": "2018-06-09T05:49:26.848Z"
}